S01100004573636C61766F20312E73726563F5
S11300000C9434000C9451000C9451000C945A023A
S11300100C9451000C9451000C9451000C94510018
S11300200C9451000C9451000C9451000C94510008
S11300300C9451000C9451000C9451000C945100F8
S11300400C9451000C9451000C9451000C945100E8
S11300500C9451000C9451000C9451000C945100D8
S11300600C9409020C94510011241FBECFEFD8E068
S1130070DEBFCDBF11E0A0E0B1E0EAEAF8E002C0E3
S113008005900D92AC30B107D9F721E0ACE0B1E0B6
S113009001C01D92AB31B207E1F70E948D000C94B0
S11300A053040C94000097B19F7C97B9880F81602A
S11300B08093BA0085E48093BC000895F89484B1D9
S11300C08E6F84B98AB18B6F8AB988E090E00E9400
S11300D0AE0260E082E00E948D0260E081E00E9456
S11300E08D028FE295E70E94D5020E94150383E0FA
S11300F00E9453000E9464030E94AB0385B18F6E7B
S113010085B9EBE6F0E0808181628083E8E6F0E087
S1130110808181608083789408950E945E0080913C
S11301200F0190911001009709F434C181309105B9
S113013099F420910701309108012B5F3F4F3093D0
S11301400801209307012E3F310534F02FEF30E0F2
S113015030930801209307018230910589F420919E
S1130160070130910801255031093093080120938B
S113017007012230310524F410920801109207017E
S11301808430910599F420910301309104012B5F8F
S11301903F4F30930401209303012E3F310534F087
S11301A02FEF30E030930401209303018330910555
S11301B089F42091030130910401255031093093D1
S11301C00401209303012230310524F41092040128
S11301D0109203018630910599F420910101309128
S11301E002012E5F3F4F30930201209301012E3F05
S11301F0310534F02FEF30E03093020120930101F8
S11302008530910589F42091010130910201225039
S1130210310930930201209301012230310524F485
S113022010920201109201018730910599F42091F6
S1130230050130910601295F3F4F30930601209359
S113024005012E3F310534F02FEF30E030930601E5
S1130250209305018830910589F42091050130919E
S113026006012750310930930601209305012230FD
S1130270310524F410920601109205018A3091058B
S113028019F421E0209300018B30910511F41092B0
S113029000010C9739F480910001813019F485B183
S11302A0806185B980910F01909110010D9709F03B
S11302B06DC080910001813009F068C085B18F7EE6
S11302C085B980910E01823009F060C012C062E0ED
S11302D00E94E6028FE59AEE0197F1F700C0000054
S11302E080910301909104010197909304018093FC
S11302F003018091030190910401992344F79FEF36
S113030029EF80E0915020408040E1F700C00000D8
S113031012C061E00E942F038FE59AEE0197F1F776
S113032000C0000080910501909106010196909310
S113033006018093050180910501909106018F3F8C
S1130340910539F334F39FEF29EF80E09150204079
S11303508040E1F700C0000012C061E00E94E602A4
S11303608FE59AEE0197F1F700C000008091070134
S11303709091080101969093080180930701809160
S11303800701909108018B3F91053CF310921001F5
S113039010920F01809100018130C1F40E94B203D8
S11303A090930D0180930C010E94900380910C01A5
S11303B090910D018430910518F421E020930E01F1
S11303C00497039718F482E080930E0161E0809112
S11303D00501909106010E942F0362E080910301C0
S11303E0909104010E94E60261E0809107019091DE
S11303F008010E94E60262E08091010190910201ED
S11304000E942F038FE59AEE0197F1F700C00000D8
S113041086CE1F920F920FB60F9211248F939F9343
S1130420EF93FF938091B9008C7F8039C9F038F441
S1130430803781F08038A1F0803671F50BC0883B9D
S1130440E1F018F4883AC9F027C0803CF9F0883C00
S1130450E9F022C0ECEBF0E080818068808321C069
S11304608091BB0090E09093100180930F01ECEB1E
S1130470F0E080818068808314C0809111018093B2
S1130480BB00ECEBF0E08081856C8083ECEBF0E06A
S11304908081846C808305C0ECEBF0E0808180690E
S11304A08083FF91EF919F918F910F900FBE0F90DA
S11304B01F9018951F920F920FB60F9211242F932D
S11304C08F939F9318991BC02FEF89EF90E02150D1
S11304D080409040E1F700C0000081E090E09093FC
S11304E01201809311011092000106C08FE39CE970
S11304F00197F1F700C00000189BF8CF06C01092D6
S1130500120110921101109200019F918F912F916D
S11305100F900FBE0F901F901895813019F0823004
S113052079F00895613031F4E0E8F0E08081806C86
S113053080830895E0E8F0E08081806880830895F6
S1130540613031F4E0E8F0E08081806380830895D5
S1130550E0E8F0E08081806280830895109280005A
S1130560109281008830910521F08115944039F072
S11305700BC0E1E8F0E080818260808305C0E1E89F
S1130580F0E0808185608083E0E8F0E08081826033
S11305908083E1E8F0E080818861808381E090E0FD
S11305A090930A01809309010895209109013091E3
S11305B00A012130310529F4909387008093860045
S11305C0089510920A01109209010895613019F0FA
S11305D06230B1F0089590931601809315018295CD
S11305E09295907F9827807F982788519C4F90936D
S11305F014018093130190938900809388000895D7
S1130600909316018093150182959295907F982777
S1130610807F982788519C4F9093140180931301F5
S113062090938B0080938A000895E0EBF0E01082B1
S1130630A1EBB0E01C92808180688083808180621D
S1130640808380818B6080838C91877F8C938C9155
S113065087608C9387E08093B30018BC0895613061
S113066019F06230C9F0089590931A01809319012A
S113067045E1489F9001499F300D1124C9016FEF56
S113068070E00E94DC03695F7F4F709318016093F0
S113069017016093B300089590931A018093190190
S11306A04FE1489F9001499F300D1124C9016FEF1C
S11306B070E00E94DC03695F7F4F709318016093C0
S11306C017016093B40008958AB18E7F8AB98AB104
S11306D082608AB91092C000E1ECF0E0108280815F
S11306E088698083E2ECF0E01082808186608083F8
S11306F087E690E09093C5008093C4000895AC0110
S113070020E007C09091C00095FFFCCF3093C60055
S11307102F5FFA01E20FF11D30813111F3CF0895FB
S1130720CF93DF9300D000D000D0CDB7DEB74AE03E
S113073050E0BE016F5F7F4F0E941304CE0101960B
S11307400E947F0326960FB6F894DEBF0FBECDBF7E
S1130750DF91CF9108958AB180648AB98AB18F7785
S11307608AB908958BB18F7B8BB98AE08A95F1F7AA
S113077000C08BB180648BB985E38A95F1F70000E2
S11307808BB18F7B8BB94F9BFECF20E030E006C04E
S11307902F5F3F4F85E08A95F1F700004F99F8CF1E
S11307A0AFE9B6E40E94F003929582958F70892791
S11307B09F7089270196089597FB072E16F40094DD
S11307C007D077FD09D00E94FF0307FC05D03EF453
S11307D0909581959F4F0895709561957F4F0895E9
S11307E0A29FB001B39FC001A39F700D811D11246E
S11307F0911DB29F700D811D1124911D0895AA1B96
S1130800BB1B51E107C0AA1FBB1FA617B70710F0F7
S1130810A61BB70B881F991F5A95A9F78095909529
S1130820BC01CD0108954532510520F4423010F049
S11308300C941E04FB011082CB010895BB274A309F
S113084031F4992322F4BDE2909581959F4F0C9445
S11308502A04BB27FB015527AA27880F991FAA1F23
S1130860A41710F0A41B83955051B9F7A05DAA33C7
S113087008F0A95DA193009779F7B111B193119292
S1130880CB010C944304DC01FC01672F71917723A5
S1130890E1F7329704C07C916D9370836291AE1737
S10D08A0BF07C8F30895F894FFCFD2
S10F08AA01960028003200B40001000098
S9030000FC
