S01100004573636C61766F20312E73726563F5
S11300000C9434000C9451000C9451000C94D501C0
S11300100C9451000C9451000C9451000C94510018
S11300200C9451000C9451000C9451000C94510008
S11300300C9451000C9451000C9451000C945100F8
S11300400C9451000C9451000C9451000C945100E8
S11300500C9451000C9451000C9451000C945100D8
S11300600C9484010C94510011241FBECFEFD8E0EE
S1130070DEBFCDBF11E0A0E0B1E0E8ECF6E002C0E5
S113008005900D92AA30B107D9F721E0AAE0B1E0BA
S113009001C01D92A731B207E1F70E948C000C94B5
S11300A062030C94000097B19F7C97B9880F81601C
S11300B08093BA0085E48093BC000895F89484B1D9
S11300C08E6F84B98AB188608AB988E090E00E9412
S11300D0290260E082E00E94080260E081E00E9460
S11300E008028FE295E70E9450020E94900283E08A
S11300F00E9453000E94DF020E94FA028FEE85B92B
S1130100EBE6F0E0808181608083E8E6F0E08081C6
S113011081608083789408950E945E0080910B0131
S113012090910C01009709F4BDC08130910599F4B8
S113013020910601309107012B5F3F4F3093070157
S1130140209306012E3F310534F02FEF30E0309339
S11301500701209306018230910589F4209106015C
S1130160309107012550310930930701209306018E
S11301702230310524F410920701109206018430D4
S1130180910599F420910201309103012B5F3F4FB7
S113019030930301209302012E3F310534F02FEFF9
S11301A030E030930301209302018330910589F4F8
S11301B0209102013091030125503109309303014C
S11301C0209302012230310524F41092030110928D
S11301D002018630910599F42091000130910101CA
S11301E02E5F3F4F30930101209300012E3F3105D4
S11301F034F02FEF30E0309301012093000185307B
S1130200910589F4209100013091010122503109B6
S113021030930101209300012230310524F410921F
S11302200101109200018730910599F42091040195
S113023030910501295F3F4F30930501209304015C
S11302402E3F310534F02FEF30E030930501209339
S113025004018830910589F420910401309105014D
S113026027503109309305012093040122303105D0
S113027024F410920501109204010A9729F480E1F4
S113028085B981E080930A0180910B0190910C0162
S11302900B9721F48FEE85B910920A0110920C018C
S11302A010920B0180910A01813039F40E940103FC
S11302B090930E0180930D0104C010920E011092D0
S11302C00D0161E080910401909105010E94AA0250
S11302D062E080910201909103010E94610261E059
S11302E080910601909107010E94610262E0809171
S11302F00001909101010E94AA028FE59AEE0197F4
S1130300F1F700C000000ACF1F920F920FB60F92B0
S113031011248F939F93EF93FF938091B9008C7F67
S11303208039C9F038F4803781F08038A1F0803604
S113033071F50BC0883BE1F018F4883AC9F027C086
S1130340803CF9F0883CE9F022C0ECEBF0E08081DD
S11303508068808321C08091BB0090E090930C0161
S113036080930B01ECEBF0E080818068808314C003
S113037080910D018093BB00ECEBF0E08081856CF3
S11303808083ECEBF0E08081846C808305C0ECEB2F
S1130390F0E0808180698083FF91EF919F918F913C
S11303A00F900FBE0F901F9018951F920F920FB6CB
S11303B00F9211242F938F939F93189919C02FEFA5
S11303C089EF90E0215080409040E1F700C00000A8
S11303D081E090E090930E0180930D0106C08FE3BD
S11303E09CE90197F1F700C00000189BF8CF08C002
S11303F081E090E090930E0180930D0110920A0128
S11304009F918F912F910F900FBE0F901F90189571
S1130410813019F0823079F00895613031F4E0E8E8
S1130420F0E08081806C80830895E0E8F0E08081D2
S1130430806880830895613031F4E0E8F0E08081E1
S1130440806380830895E0E8F0E0808180628083A7
S1130450089510928000109281008830910521F057
S11304608115944039F00BC0E1E8F0E080818260AE
S1130470808305C0E1E8F0E0808185608083E0E866
S1130480F0E0808182608083E1E8F0E0808188612F
S1130490808381E090E0909309018093080108959E
S11304A020910801309109012130310529F49093FC
S11304B08700809386000895109209011092080124
S11304C00895613019F06230B1F0089590931201EB
S11304D08093110182959295907F9827807F982729
S11304E088519C4F9093100180930F019093890041
S11304F0809388000895909312018093110182954E
S11305009295907F9827807F982788519C4F90934D
S1130510100180930F0190938B0080938A000895BB
S1130520E0EBF0E01082A1EBB0E01C9280818068E7
S1130530808380818062808380818B6080838C91C2
S1130540877F8C938C9187608C9387E08093B30032
S113055018BC0895613019F06230C9F00895909381
S113056016018093150145E1489F9001499F300D84
S11305701124C9016FEF70E00E942B03695F7F4F64
S113058070931401609313016093B30008959093E2
S11305901601809315014FE1489F9001499F300D4A
S11305A01124C9016FEF70E00E942B03695F7F4F34
S11305B070931401609313016093B40008958AB199
S11305C08E7F8AB98AB182608AB91092C000E1EC48
S11305D0F0E01082808188698083E2ECF0E0108290
S11305E080818660808387E690E09093C500809345
S11305F0C40008958AB180648AB98AB18F778AB9B0
S113060008958BB18F7B8BB98AE08A95F1F700C08E
S11306108BB180648BB985E38A95F1F700008BB1C7
S11306208F7B8BB94F9BFECF20E030E006C02F5F5D
S11306303F4F85E08A95F1F700004F99F8CFAFE975
S1130640B6E40E943F03929582958F7089279F702C
S113065089270196089597FB072E16F4009407D076
S113066077FD09D00E944E0307FC05D03EF4909517
S113067081959F4F0895709561957F4F0895A29F2E
S1130680B001B39FC001A39F700D811D1124911D62
S1130690B29F700D811D1124911D0895AA1BBB1BCF
S11306A051E107C0AA1FBB1FA617B70710F0A61B6E
S11306B0B70B881F991F5A95A9F780959095BC018F
S10B06C0CD010895F894FFCF69
S10D06C8960050003200A00001006B
S9030000FC
