S00F00004D61657374726F2E737265633A
S11300000C9434000C9451000C9451000C94510045
S11300100C9451000C9451000C9451000C94510018
S11300200C9451000C9451000C9451000C94510008
S11300300C9451000C9451000C9451000C945100F8
S11300400C9451000C9451000C9401040C94510034
S11300500C9451000C9451000C9451000C945100D8
S11300600C9451000C94510011241FBECFEFD8E022
S1130070DEBFCDBF11E0A0E0B1E0E4E8FAE002C0E9
S113008005900D92AA30B107D9F721E0AAE0B1E0BA
S113009001C01D92AD32B207E1F70E9459010C94E0
S11300A040050C940000CF93C82F9A01AB0187B18F
S11300B08F7C87B960E074E284EF90E00E94DE04F4
S11300C0CA01B90160517109810991092C2F30E0ED
S11300D0220F331F032E000C440B550B0E94DE0429
S11300E02093B800C43079F018F4C13031F023C043
S11300F0C03191F0C034C9F01EC0E9EBF0E080815A
S11301008C7F80831DC0E9EBF0E080818D7F80834C
S113011080818160808314C0E9EBF0E080818E7F70
S113012080838081826080830BC0E9EBF0E0808172
S11301308D6F808305C0E9EBF0E080818C7F808344
S113014084E08093BC00CF91089584EA8093BC003E
S11301508091BC008823E4F78091B900887F8830BF
S113016021F0803119F481E0089581E008958093AD
S1130170BB0084E88093BC008091BC008823E4F732
S11301808091B900887F883131F0883231F0803431
S113019029F481E0089581E0089581E0089584E9D7
S11301A08093BC008091BC0084FDFCCF0895CF9364
S11301B0C82F660F609313010E94A500809310015D
S11301C0813031F0ECEBF0E080818068808310C0F6
S11301D0809113010E94B70080931001813019F0BF
S11301E00E94CF0005C08C2F0E94B7000E94CF0050
S11301F0CF910895CF93DF9394EA9093BC009091AC
S1130200BC009923E4F79091B900987F9830E1F508
S113021090E0880F991F81608093BB0084E88093ED
S1130220BC008091BC008823E4F7EB018091B90005
S1130230887F883429F40E94CF0081E090E026C0B2
S1130240803429F00E94CF0081E090E01FC084E850
S11302508093BC008091BC008823E4F78091B900AE
S1130260887F883539F0803529F00E94CF0081E0FD
S113027090E00CC08091BB0090E0998388830E9439
S1130280CF008881998102C081E090E0DF91CF9115
S11302900895F8948FEF8AB983E087B90E94900497
S11302A040E45DE063E070E084E00E9453007894F1
S11302B008950E9449010F2EF8E1CF2EF1E0DF2EC0
S11302C0F02D0F2EFBE2EF2EF1E0FF2EF02D0AE2CF
S11302D011E025E131E044E151E06CE271E089E1B3
S11302E091E00E9434048091140190E02091020175
S11302F0309103018217930771F480912C0190E0EF
S113030020910001309101018217930721F463E0E9
S11303108AE00E94D7008091140190E020910C01A2
S113032030910D018217930771F480912C0190E0B4
S113033020910A0130910B018217930721F463E0A5
S11303408BE00E94D70080910F01882309F452C2E8
S113035080910F018134C1F58091140190E00E94D5
S1130360C3048AE30E94BC0480912C0190E00E94A3
S1130370C3048AE30E94BC048091190190E00E94A6
S1130380C30484E091E00E94AB0486E091E00E9403
S1130390AB0480912A0190E00E94C3048FE20E9482
S11303A0BC0480912B0190E00E94C3048FE20E9460
S11303B0BC048091180190E08053984F0E94C304BC
S11303C088E091E00E94AB0480910F01823419F41B
S11303D081E080930E0180910E01813009F040C0CC
S11303E080910F01833421F463E081E00E94D700FF
S11303F080910F01843421F463E082E00E94D700ED
S113040080910F01853421F463E083E00E94D700DA
S113041080910F01863421F463E084E00E94D700C8
S113042080910F01873421F463E085E00E94D700B6
S113043080910F01883421F463E086E00E94D700A4
S113044080910F01893421F463E087E00E94D70092
S113045080910F018A3421F463E088E00E94D70080
S113046080910F01823519F482E080930E0180910E
S11304700E01823001F580910F01853421F462E090
S113048081E00E94D70080910F01863421F462E05C
S113049082E00E94D70080910F01873421F462E04A
S11304A083E00E94D70080910F01883421F462E038
S11304B084E00E94D70080910F01843509F05BC06D
S11304C083E080930E018FE19EE40197F1F700C071
S11304D0000080910201909103010E94C30484E012
S11304E091E00E94AB0484E091E00E94AB0484E0BC
S11304F091E00E94AB0484E091E00E94AB0484E0AC
S113050091E00E94AB0484E091E00E94AB0484E09B
S113051091E00E94AB0486E091E00E94AB048091DC
S11305200001909101010E94C30484E091E00E94C3
S1130530AB0484E091E00E94AB0484E091E00E946B
S1130540AB0484E091E00E94AB0484E091E00E945B
S1130550AB0484E091E00E94AB0484E091E00E944B
S1130560AB0488E091E00E94AB048FE19EE4019724
S1130570F1F700C0000080910E01833009F062C0E1
S113058080910F01813649F4809102019091030119
S11305900196909303018093020180910F018236AA
S11305A049F4809102019091030101979093030112
S11305B08093020180910F01833649F480910001F8
S11305C09091010101969093010180930001809123
S11305D00F01843649F48091000190910101019743
S11305E09093010180930001809102019091030195
S11305F0479734F087E190E09093030180930201E0
S113060080910201909103011816190624F01092AA
S11306100301109202018091000190910101CB9796
S113062034F08BE390E0909301018093000180917A
S11306300001909101011816190624F0109201018D
S11306401092000180910F01893509F053C084E0B4
S113065080930E018FE19EE40197F1F700C0000042
S113066080910C0190910D010E94C30484E091E0FB
S11306700E94AB0484E091E00E94AB0484E091E02A
S11306800E94AB0484E091E00E94AB0484E091E01A
S11306900E94AB0484E091E00E94AB0484E091E00A
S11306A00E94AB0486E091E00E94AB0480910A01B1
S11306B090910B010E94C30484E091E00E94AB047A
S11306C084E091E00E94AB0484E091E00E94AB04DA
S11306D084E091E00E94AB0484E091E00E94AB04CA
S11306E088E091E00E94AB048FE19EE40197F1F76A
S11306F000C0000080910E01843009F062C0809136
S11307000F01813649F480910C0190910D010196FD
S113071090930D0180930C0180910F01823649F46E
S113072080910C0190910D01019790930D0180939C
S11307300C0180910F01833649F480910A01909154
S11307400B01019690930B0180930A0180910F0194
S1130750843649F480910A0190910B01019790939A
S11307600B0180930A0180910C0190910D01479730
S113077034F087E190E090930D0180930C01809117
S11307800C0190910D011816190624F010920D0118
S113079010920C0180910A0190910B01CB9734F0D7
S11307A08BE390E090930B0180930A0180910A01FE
S11307B090910B011816190624F010920B01109257
S11307C00A0180910F018B3499F466E171E083E0B2
S11307D00E94FA0090931701809316010E94C304AB
S11307E086E091E00E94AB0488E091E00E94AB04B3
S11307F010920F018FE39CE90197F1F700C000000C
S11308005ACD1F920F920FB60F9211248F9380919D
S1130810C60080930F018091C00085FFFCCF8F91AB
S11308200F900FBE0F901F901895982F92959F7060
S1130830990F292F220F220F920F8F70890F08957D
S113084084EC8093BC008091BC008823E4F7809101
S1130850BB00089584E88093BC008091BC00882389
S1130860E4F78091BB0008956F927F928F929F92DC
S1130870AF92BF92CF92DF92EF92FF920F931F93AA
S1130880CF93DF934C015B01EA0139010E94A5007B
S113089080ED90E00E94B70080E090E00E94B700F5
S11308A00E94A50081ED90E00E94B7000E94200400
S11308B00E941504F40180830E9420040E94150400
S11308C0F50180830E9420040E94150488830E94FD
S11308D020040E941504F30180830E9420040E94D6
S11308E01504F80180830E9420040E941504F70176
S11308F080830E942A040E941504F60180830E94CA
S1130900CF00DF91CF911F910F91FF90EF90DF9077
S1130910CF90BF90AF909F908F907F906F900895ED
S11309208AB18E7F8AB98AB182608AB91092C00076
S1130930E1ECF0E01082808188698083E2ECF0E0F1
S1130940108280818660808387E690E09093C50062
S11309508093C4000895AC0120E007C09091C000CA
S113096095FFFCCF3093C6002F5FFA01E20FF11D13
S113097030813111F3CF08959091C00095FFFCCFE1
S11309808093C6000895CF93DF9300D000D000D0A9
S1130990CDB7DEB74AE050E0BE016F5F7F4F0E94E3
S11309A00005CE0101960E94AB0426960FB6F8947A
S11309B0DEBF0FBECDBFDF91CF910895A1E21A2E05
S11309C0AA1BBB1BFD010DC0AA1FBB1FEE1FFF1FEF
S11309D0A217B307E407F50720F0A21BB30BE40B3F
S11309E0F50B661F771F881F991F1A9469F7609586
S11309F07095809590959B01AC01BD01CF01089540
S1130A004532510520F4423010F00C940B05FB01E3
S1130A101082CB010895BB274A3031F4992322F484
S1130A20BDE2909581959F4F0C941705BB27FB0160
S1130A305527AA27880F991FAA1FA41710F0A41BD3
S1130A4083955051B9F7A05DAA3308F0A95DA1932D
S1130A50009779F7B111B1931192CB010C94300541
S1130A60DC01FC01672F71917723E1F7329704C011
S1130A707C916D9370836291AE17BF07C8F308959C
S1070A80F894FFCF14
S10D0A840200090020005F000A00D0
S9030000FC
