:100000000C9434000C9451000C9451000C9416057F
:100010000C9451000C9451000C9451000C9451001C
:100020000C9451000C9451000C9451000C9451000C
:100030000C9451000C9451000C9451000C945100FC
:100040000C9451000C9451000C9447040C945100F2
:100050000C9451000C9494040C9451000C94510095
:100060000C9451000C94510011241FBECFEFD8E026
:10007000DEBFCDBF11E0A0E0B1E0E2E9FCE002C0EC
:1000800005900D92AC3EB107D9F722E0ACEEB1E09D
:1000900001C01D92AB33B207E1F70E9461010C94DD
:1000A00047060C940000ECE7F0E08081887F8083B5
:1000B000AEE7B0E08C9181608C938C9182608C93E0
:1000C0008C9184608C938C9188608C938081806209
:1000D000808380818064808380818F778083EAE75A
:1000E000F0E0808188608083808187608083808168
:1000F0008068808308959BB19F70282F207F922B6A
:100100009BB99BB19B7F9BB99BB198609BB935E034
:100110003A95F1F700009BB1977F9BB9EFE1F3E0CF
:100120003197F1F700C000002BB1F0E18F9FC001C3
:100130001124922F9F70892B8BB98BB188608BB95A
:1001400035E03A95F1F700008BB1877F8BB98FE3EB
:100150009FE10197F1F700C0000008959BB19F70E7
:10016000282F207F922B9BB99BB194609BB99BB1A8
:1001700098609BB935E03A95F1F700009BB1977F05
:100180009BB9EFE1F3E03197F1F700C000002BB12C
:10019000F0E18F9FC0011124922F9F70892B8BB9A2
:1001A0008BB188608BB935E03A95F1F700008BB1DF
:1001B000877F8BB98FE39FE10197F1F700C00000C3
:1001C00008952FEF89EF90E0215080409040E1F7B3
:1001D00000C0000082E00E947B0088E20E947B0059
:1001E0008CE00E947B0086E00E947B0081E00E9400
:1001F0007B008FE39FE10197F1F700C000000895B5
:10020000813019F480E8860F06C0823019F480EC42
:10021000860F01C080E80E947B00089581E00E9463
:100220007B008FE39FE10197F1F700C00000089584
:10023000CF93DF93EC0103C021960E94AE0088812A
:100240008111FACFDF91CF910895F8948FEF8AB999
:1002500014B88FE185B9EBE6F0E080818F6180838F
:10026000E8E6F0E08081816080830E94E1000E94E6
:1002700002060E9453002FEF83ED90E3215080404F
:100280009040E1F700C0000060E081E00E940001C2
:1002900082E091E00E94180160E082E00E9400018B
:1002A00082E191E00E9418012FEF83E294EF215048
:1002B00080409040E1F700C000000E940E01789459
:1002C00008950E9425018091F5019091F601892BF6
:1002D00081F58091EE019091EF01892B51F560E05D
:1002E00081E00E9400018EE191E00E94180163E02C
:1002F00082E00E9400018EE291E00E9418012FEF3F
:100300008FE493EC215080409040E1F700C0000062
:10031000C1E0D0E0D093F101C093F0011092ED0163
:100320001092EC010E940E01D093EF01C093EE01F8
:10033000F5C18091F5019091F601019749F5109270
:10034000F1011092F00181E40E941D0660E081E05D
:100350000E94000187E391E00E94180184E092E08E
:100360000E94180160E082E00E9400018EE391E0AB
:100370000E9418018CE292E00E9418012FEF83ED99
:1003800090E3215080409040E1F700C00000C6C1DA
:100390008091F5019091F601029709F06BC060E041
:1003A00081E00E94000185E491E00E94180163E071
:1003B00082E00E94000186E591E00E9418011092FF
:1003C00001011092000182E40E941D068FE19EE46B
:1003D0000197F1F700C000008091FD019091FE01AE
:1003E0008A3F91051CF083E40E941D068091FD0167
:1003F0009091FE010B971CF484E40E941D068091ED
:10040000F9019091FA018A3F91051CF086E40E945F
:100410001D068091F9019091FA010B971CF485E477
:100420000E941D068091F7019091F801863E91058A
:100430001CF087E40E941D068091F7019091F8015D
:100440004F971CF488E40E941D068091FB01909157
:10045000FC018A3F91051CF089E40E941D068091F1
:10046000FB019091FC010B970CF058C18AE40E94AB
:100470001D0654C18091F5019091F601039709F092
:100480005FC08FE19EE40197F1F700C0000060E0DB
:1004900081E00E9400018FE591E00E9418018AEE40
:1004A00091E00E9418018AEE91E00E9418018AEE04
:1004B00091E00E9418018AEE91E00E9418018AEEF4
:1004C00091E00E9418018AEE91E00E94180161E01B
:1004D00082E00E9400018AE691E00E94180182E514
:1004E0000E941D068FE19EE40197F1F700C0000015
:1004F0008091F9019091FA018A3F91051CF085E401
:100500000E941D068091F9019091FA010B971CF44D
:1005100086E40E941D068091F7019091F8018A3FC0
:1005200091051CF087E40E941D068091F7019091CF
:10053000F8010B970CF0F2C088E40E941D06EEC093
:100540008091F5019091F601049709F04FC08FE179
:100550009EE40197F1F700C0000060E081E00E9496
:10056000000189E791E00E9418018AEE91E00E9463
:1005700018018AEE91E00E9418018AEE91E00E9433
:1005800018018AEE91E00E9418018AEE91E00E9423
:1005900018018AEE91E00E94180160E082E00E945A
:1005A000000183E891E00E9418019FEF2BE782E9A8
:1005B000915020408040E1F700C0000085E090E0CD
:1005C0009093F6018093F5010E940E019FEF20E7C2
:1005D00082E0915020408040E1F700C0000081E0BF
:1005E00090E0909301018093000198C08091F50103
:1005F0009091F6010697E9F58FE19EE40197F1F7F6
:1006000000C0000060E081E00E94000189E791E005
:100610000E9418018AEE91E00E9418018AEE91E092
:100620000E9418018AEE91E00E94180160E082E0C9
:100630000E94000184E991E00E9418019FEF2BE7DE
:1006400082E9915020408040E1F700C0000087E03F
:1006500090E09093F6018093F5010E940E019FEFC8
:1006600020E782E0915020408040E1F700C0000088
:1006700055C08091F5019091F601079729F589E51C
:100680000E941D0660E081E00E94000187E391E086
:100690000E94180184E092E00E94180160E082E06C
:1006A0000E94000184EA91E00E9418018CE292E02D
:1006B0000E9418019FEF21EE84E09150204080407D
:1006C000E1F700C000002AC08091F5019091F60189
:1006D000059721F584E50E941D0660E081E00E94F7
:1006E000000187E391E00E94180184E092E00E94FB
:1006F000180160E082E00E94000184EA91E00E941B
:1007000018018CE292E00E9418019FEF21EE84E034
:10071000915020408040E1F700C000008091F0013E
:100720009091F101019709F077C08091EC019091CF
:10073000ED01892B09F070C08BE40E941D066DEA63
:1007400071E084E092E00E942F06892B89F460E03A
:1007500081E00E9400018FEA91E00E94180164E0AC
:1007600082E00E9400018CE991E00E9418014BC0D8
:100770006DEB71E084E092E00E942F06892B59F521
:100780000E940E019FEF23ED80E3915020408040B6
:10079000E1F700C0000060E081E00E9400018FEB03
:1007A00091E00E94180164E082E00E9400018DED5A
:1007B00091E00E94180181E090E09093ED01809318
:1007C000EC019FEF2FE483EC915020408040E1F753
:1007D00000C0000018C060E081E00E9400018EECC3
:1007E00091E00E94180184E092E00E94180187EDD8
:1007F00091E00E94180160E082E00E9400018BED10
:1008000091E00E9418019FEF21EE84E0915020407A
:100810008040E1F700C0000080910001909101014B
:10082000892B09F050CDEAE7F0E080818064808375
:100830004ACD0F931F93CF93DF936FE570E08EE067
:1008400092E00E942406EC010097E1F08C010E502A
:1008500012400A30110558F4A8016EE072E084E0FD
:1008600092E00E943806F801EC5FFD4F1082BE0155
:100870006F5F7F4F4EE050E08CE292E00E943806BE
:1008800010923A02DF91CF911F910F9108951F921C
:100890000F920FB60F9211242F933F934F935F93B4
:1008A0006F937F938F939F93AF93BF93EF93FF9338
:1008B0008091C60080930302809103028A3021F068
:1008C000809103028D3059F4E091F201F0E0E25F93
:1008D000FD4F10821092F2010E94190410C0809105
:1008E000F2018D3160F4E091F20181E08E0F80938E
:1008F000F201F0E080910302E25FFD4F808380917E
:10090000C00085FFFCCFFF91EF91BF91AF919F9108
:100910008F917F916F915F914F913F912F910F90A8
:100920000FBE0F901F9018951F920F920FB60F9247
:1009300011248F939F93EF93FF93809101029091E5
:100940000202892B09F064C08091FF01909100029E
:1009500081309105F1F01CF4892B41F059C08230AF
:10096000910569F1039709F440C052C0ECE7F0E04B
:100970008081887F808381E090E090930002809363
:10098000FF018091790090E09093FE018093FD013A
:100990003FC0ECE7F0E08081887F808380818160C8
:1009A000808382E090E0909300028093FF01809129
:1009B000790090E09093FA018093F90129C0ECE767
:1009C000F0E08081887F808380818260808383E003
:1009D00090E0909300028093FF018091790090E075
:1009E0009093F8018093F70113C0ECE7F0E0808169
:1009F000887F8083808183608083109200021092C0
:100A0000FF018091790090E09093FC018093FB01BD
:100A1000EAE7F0E0808180618083FF91EF919F9110
:100A20008F910F900FBE0F901F9018951F920F92ED
:100A30000FB60F9211242F933F934F935F936F93B1
:100A40007F938F939F93AF93BF93CF93EF93FF9336
:100A500018993CC02FEF89EF90E0215080409040E2
:100A6000E1F700C000000E940E012FEF8AE693E03C
:100A7000215080409040E1F700C000008091F501D6
:100A80009091F60101969093F6018093F5018FE322
:100A90009CE90197F1F700C000008091F501909169
:100AA000F60108978CF01092F6011092F501109261
:100AB000EF011092EE010E940E0106C08FE39CE947
:100AC0000197F1F700C00000189BF8CF199938C0C2
:100AD0009FEF26E781E0915020408040E1F700C081
:100AE000000081E090E0909301018093000110925A
:100AF000F6011092F5011092ED011092EC011092A6
:100B0000EF011092EE019FEF2AE683E09150204022
:100B10008040E1F700C000000E940E019FEF29EF26
:100B200080E0915020408040E1F700C0000006C006
:100B30008FE39CE90197F1F700C00000199BF8CF03
:100B40008091F5019091F601059739F08091F501BA
:100B50009091F601079709F043C0C3B1C47083B107
:100B600088709091F401C917E9F0C11119C0811181
:100B70000CC08091F301811104C081E60E941D0622
:100B80000FC083E60E941D060BC08091F301811106
:100B900004C082E60E941D0603C084E60E941D0672
:100BA000C093F4011C991CC09FEF26E781E091508F
:100BB00020408040E1F700C000008091F3018111E6
:100BC00004C081E08093F30109C01092F30106C0D4
:100BD0008FE39CE90197F1F700C000001C9BF8CF60
:100BE000FF91EF91CF91BF91AF919F918F917F91A5
:100BF0006F915F914F913F912F910F900FBE0F908A
:100C00001F9018958AB18E7F8AB98AB182608AB99D
:100C10001092C000E1ECF0E010828081886980834E
:100C2000E2ECF0E0108280818660808387E690E0CD
:100C30009093C5008093C40008959091C00095FFE3
:100C4000FCCF8093C6000895FC018191861721F0A6
:100C50008823D9F7992708953197CF010895FB018B
:100C6000DC018D91019080190110D9F3990B089541
:100C7000FB01DC014150504048F001900D920020F2
:100C8000C9F701C01D9241505040E0F70895F89413
:020C9000FFCF94
:100C9200010020204269656E76656E69646F20618D
:100CA2006C0020202020636F6E74726F6C002046EF
:100CB200756E63696F6E616D69656E746F00202079
:100CC2006E6F726D616C00486F72613A200046650A
:100CD2006368613A00436F6E74726F6C20646520C2
:100CE2006272617A6F00726F626F7469636F004340
:100CF2006F6E74726F6C20646500646573706C61F2
:100D02007A616D69656E746F0043616D62696F200F
:100D1200646500686F72612064652061637469763E
:100D220061646F00686F7261206465206170616741
:100D320061646F004D696E75746F3A200030005324
:100D4200697374656D6120657374612000310053AD
:100D520065206465746563746F2067617300416C1C
:100D6200747572613A200020636D002020202020DB
:0C0D720020202020202020202020200015
:00000001FF
