:100000000C9434000C9451000C9451000C94510049
:100010000C9451000C9451000C9451000C9451001C
:100020000C9451000C9451000C9451000C9451000C
:100030000C9451000C9451000C9451000C945100FC
:100040000C9451000C9451000C945C010C945100E0
:100050000C9451000C9443010C9451000C945100E9
:100060000C9470010C94510011241FBECFEFD8E006
:10007000DEBFCDBF11E0A0E0B1E0EAE8F4E002C0ED
:1000800005900D92A830B107D9F721E0A8E0B1E0C2
:1000900001C01D92AF30B207E1F70E94C4000C947A
:1000A00043020C940000ECE7F0E01082AEE7B0E011
:1000B0008C9181608C938C9182608C938081806222
:1000C000808380818064808380818F778083EAE76A
:1000D000F0E0808188608083808187608083808178
:1000E00080688083089597B19F7C97B9880F81605D
:1000F0008093BA0085E48093BC00089584B18F603A
:1001000084B98AB1806C8AB98AB18F7E8AB9089520
:10011000F8940E947E000E9453000E94BC0182E07D
:100120000E9473007894089580E091E00E94D701C6
:1001300080910A0190E00E94E80185E091E00E9430
:10014000D70180910901813321F481E080930C0172
:10015000089580910901823321F482E080930C019B
:10016000089580910901833321F483E080930C0189
:10017000089580910901843321F484E080930C0177
:10018000089510920C0108950E948800EAE7F0E0BB
:100190008081806480830E94940089B182958170FF
:1001A00080930801882321F081E080930E0102C032
:1001B00010920E0180910C018230E1F018F4813030
:1001C00031F051C0833049F18430D1F14CC08BB152
:1001D00080688BB985B18E7F85B985B1826085B91C
:1001E0008BB180648BB985B18B7F85B985B188600F
:1001F00085B93FC08BB180688BB985B1816085B905
:1002000085B18D7F85B98BB180648BB985B18460F0
:1002100085B985B1877F85B92CC08BB180688BB9D2
:1002200085B18E7F85B985B1826085B98BB18064D7
:100230008BB985B1846085B985B1877F85B919C0CF
:100240008BB180688BB985B1816085B985B18D7FAF
:1002500085B98BB180648BB985B18B7F85B985B148
:10026000886085B906C08BB18F778BB98BB18F7BD6
:100270008BB92FEF83EC99E0215080409040E1F75B
:1002800000C0000083CF1F920F920FB60F9211246F
:100290008F93EF93FF938091790080930A01EAE7AF
:1002A000F0E0808180618083FF91EF918F910F90CA
:1002B0000FBE0F901F9018951F920F920FB60F92BE
:1002C00011248F938091C600809309018091C00012
:1002D00085FFFCCF8F910F900FBE0F901F90189548
:1002E0001F920F920FB60F9211248F93EF93FF93EB
:1002F0008091B9008C7F8039C9F038F4803781F063
:100300008038A1F0803659F50BC0883BC9F018F44D
:10031000883AB1F024C0803CE1F0883CD1F01FC0A5
:10032000ECEBF0E08081806880831EC08091BB0090
:1003300080930C01ECEBF0E080818068808314C036
:1003400080910A018093BB00ECEBF0E08081856C2A
:100350008083ECEBF0E08081846C808305C0ECEB63
:10036000F0E0808180698083FF91EF918F910F9001
:100370000FBE0F901F9018958AB18E7F8AB98AB1EF
:1003800082608AB91092C000E1ECF0E010828081B6
:1003900088698083E2ECF0E010828081866080834F
:1003A00087E690E09093C5008093C4000895AC0167
:1003B00020E007C09091C00095FFFCCF3093C600AD
:1003C0002F5FFA01E20FF11D30813111F3CF089553
:1003D000CF93DF9300D000D000D0CDB7DEB74AE096
:1003E00050E0BE016F5F7F4F0E940302CE01019675
:1003F0000E94D70126960FB6F894DEBF0FBECDBF80
:10040000DF91CF9108954532510520F4423010F02C
:100410000C940E02FB011082CB010895BB274A30D9
:1004200031F4992322F4BDE2909581959F4F0C946D
:100430001A02BB27FB015527AA27880F991FAA1F5D
:10044000A41710F0A41B83955051B9F7A05DAA33EF
:1004500008F0A95DA193009779F7B111B1931192BA
:10046000CB010C943302DC01FC01672F71917723DF
:10047000E1F7329704C07C916D9370836291AE175F
:0A048000BF07C8F30895F894FFCFFA
:08048A004144433A000A00005E
:00000001FF
