S01100004573636C61766F20322E73726563F4
S11300000C9434000C9446000C9446000C94460066
S11300100C9446000C9446000C9446000C94460044
S11300200C9446000C9446000C9446000C94460034
S11300300C9446000C9446000C9446000C94460024
S11300400C9446000C9446000C94AE000C944600AC
S11300500C9446000C9446000C9446000C94460004
S11300600C945D000C94460011241FBECFEFD8E021
S1130070DEBFCDBF21E0A0E0B1E001C01D92A530FC
S1130080B207E1F70E945A000C94DD000C940000C2
S113009097B19F7C97B9880F81608093BA0085E4FB
S11300A08093BC00089582E00E9448000E94C20030
S11300B0789408950E945300FFCF1F920F920FB6B9
S11300C00F9211248F939F93EF93FF938091B90024
S11300D08C7F8039C9F038F4803781F08038A1F002
S11300E0803671F50BC0883BE1F018F4883AC9F00A
S11300F027C0803CF9F0883CE9F022C0ECEBF0E04A
S113010080818068808321C08091BB0090E09093BF
S1130110040180930301ECEBF0E08081806880832C
S113012014C0809101018093BB00ECEBF0E080816E
S1130130856C8083ECEBF0E08081846C808305C067
S1130140ECEBF0E0808180698083FF91EF919F91D7
S11301508F910F900FBE0F901F9018951F920F92C2
S11301600FB60F9211248F938091C60080930001E3
S11301708091C00085FFFCCF8F910F900FBE0F9030
S11301801F9018958AB18E7F8AB98AB182608AB924
S11301901092C000E1ECF0E01082808188698083D5
S11301A0E2ECF0E0108280818660808387E690E054
S11101B09093C5008093C4000895F894FFCF87
S9030000FC
